{
  "contractName": "Autopool",
  "abi": [
    {
      "inputs": [],
      "payable": false,
      "stateMutability": "nonpayable",
      "type": "constructor"
    },
    {
      "constant": true,
      "inputs": [],
      "name": "allmemberCount",
      "outputs": [
        {
          "internalType": "uint256",
          "name": "",
          "type": "uint256"
        }
      ],
      "payable": false,
      "stateMutability": "view",
      "type": "function"
    },
    {
      "constant": true,
      "inputs": [
        {
          "internalType": "uint256",
          "name": "",
          "type": "uint256"
        }
      ],
      "name": "allmembers",
      "outputs": [
        {
          "internalType": "uint256",
          "name": "id",
          "type": "uint256"
        },
        {
          "internalType": "string",
          "name": "name",
          "type": "string"
        },
        {
          "internalType": "address payable",
          "name": "addr",
          "type": "address"
        },
        {
          "internalType": "uint256",
          "name": "direct_downliners",
          "type": "uint256"
        },
        {
          "internalType": "uint256",
          "name": "referrer_balance",
          "type": "uint256"
        }
      ],
      "payable": false,
      "stateMutability": "view",
      "type": "function"
    },
    {
      "constant": true,
      "inputs": [
        {
          "internalType": "address",
          "name": "",
          "type": "address"
        }
      ],
      "name": "box1_completed",
      "outputs": [
        {
          "internalType": "bool",
          "name": "",
          "type": "bool"
        }
      ],
      "payable": false,
      "stateMutability": "view",
      "type": "function"
    },
    {
      "constant": true,
      "inputs": [
        {
          "internalType": "address",
          "name": "",
          "type": "address"
        }
      ],
      "name": "box2_completed",
      "outputs": [
        {
          "internalType": "bool",
          "name": "",
          "type": "bool"
        }
      ],
      "payable": false,
      "stateMutability": "view",
      "type": "function"
    },
    {
      "constant": true,
      "inputs": [
        {
          "internalType": "uint256",
          "name": "",
          "type": "uint256"
        }
      ],
      "name": "box2_users",
      "outputs": [
        {
          "internalType": "uint256",
          "name": "id",
          "type": "uint256"
        },
        {
          "internalType": "address payable",
          "name": "addr",
          "type": "address"
        },
        {
          "internalType": "uint256",
          "name": "bal",
          "type": "uint256"
        },
        {
          "internalType": "uint256",
          "name": "paid",
          "type": "uint256"
        },
        {
          "internalType": "uint256",
          "name": "f_key",
          "type": "uint256"
        }
      ],
      "payable": false,
      "stateMutability": "view",
      "type": "function"
    },
    {
      "constant": true,
      "inputs": [
        {
          "internalType": "address",
          "name": "",
          "type": "address"
        }
      ],
      "name": "box3_completed",
      "outputs": [
        {
          "internalType": "bool",
          "name": "",
          "type": "bool"
        }
      ],
      "payable": false,
      "stateMutability": "view",
      "type": "function"
    },
    {
      "constant": true,
      "inputs": [
        {
          "internalType": "uint256",
          "name": "",
          "type": "uint256"
        }
      ],
      "name": "box3_users",
      "outputs": [
        {
          "internalType": "uint256",
          "name": "id",
          "type": "uint256"
        },
        {
          "internalType": "address payable",
          "name": "addr",
          "type": "address"
        },
        {
          "internalType": "uint256",
          "name": "bal",
          "type": "uint256"
        },
        {
          "internalType": "uint256",
          "name": "paid",
          "type": "uint256"
        },
        {
          "internalType": "uint256",
          "name": "f_key",
          "type": "uint256"
        }
      ],
      "payable": false,
      "stateMutability": "view",
      "type": "function"
    },
    {
      "constant": true,
      "inputs": [
        {
          "internalType": "address",
          "name": "",
          "type": "address"
        }
      ],
      "name": "box4_completed",
      "outputs": [
        {
          "internalType": "bool",
          "name": "",
          "type": "bool"
        }
      ],
      "payable": false,
      "stateMutability": "view",
      "type": "function"
    },
    {
      "constant": true,
      "inputs": [
        {
          "internalType": "uint256",
          "name": "",
          "type": "uint256"
        }
      ],
      "name": "box4_users",
      "outputs": [
        {
          "internalType": "uint256",
          "name": "id",
          "type": "uint256"
        },
        {
          "internalType": "address payable",
          "name": "addr",
          "type": "address"
        },
        {
          "internalType": "uint256",
          "name": "bal",
          "type": "uint256"
        },
        {
          "internalType": "uint256",
          "name": "paid",
          "type": "uint256"
        },
        {
          "internalType": "uint256",
          "name": "f_key",
          "type": "uint256"
        }
      ],
      "payable": false,
      "stateMutability": "view",
      "type": "function"
    },
    {
      "constant": true,
      "inputs": [
        {
          "internalType": "address",
          "name": "",
          "type": "address"
        }
      ],
      "name": "box5_completed",
      "outputs": [
        {
          "internalType": "bool",
          "name": "",
          "type": "bool"
        }
      ],
      "payable": false,
      "stateMutability": "view",
      "type": "function"
    },
    {
      "constant": true,
      "inputs": [
        {
          "internalType": "uint256",
          "name": "",
          "type": "uint256"
        }
      ],
      "name": "box5_users",
      "outputs": [
        {
          "internalType": "uint256",
          "name": "id",
          "type": "uint256"
        },
        {
          "internalType": "address payable",
          "name": "addr",
          "type": "address"
        },
        {
          "internalType": "uint256",
          "name": "bal",
          "type": "uint256"
        },
        {
          "internalType": "uint256",
          "name": "paid",
          "type": "uint256"
        },
        {
          "internalType": "uint256",
          "name": "f_key",
          "type": "uint256"
        }
      ],
      "payable": false,
      "stateMutability": "view",
      "type": "function"
    },
    {
      "constant": true,
      "inputs": [
        {
          "internalType": "address",
          "name": "",
          "type": "address"
        }
      ],
      "name": "box6_completed",
      "outputs": [
        {
          "internalType": "bool",
          "name": "",
          "type": "bool"
        }
      ],
      "payable": false,
      "stateMutability": "view",
      "type": "function"
    },
    {
      "constant": true,
      "inputs": [
        {
          "internalType": "uint256",
          "name": "",
          "type": "uint256"
        }
      ],
      "name": "box6_users",
      "outputs": [
        {
          "internalType": "uint256",
          "name": "id",
          "type": "uint256"
        },
        {
          "internalType": "address payable",
          "name": "addr",
          "type": "address"
        },
        {
          "internalType": "uint256",
          "name": "bal",
          "type": "uint256"
        },
        {
          "internalType": "uint256",
          "name": "paid",
          "type": "uint256"
        },
        {
          "internalType": "uint256",
          "name": "f_key",
          "type": "uint256"
        }
      ],
      "payable": false,
      "stateMutability": "view",
      "type": "function"
    },
    {
      "constant": true,
      "inputs": [
        {
          "internalType": "address",
          "name": "",
          "type": "address"
        }
      ],
      "name": "box7_completed",
      "outputs": [
        {
          "internalType": "bool",
          "name": "",
          "type": "bool"
        }
      ],
      "payable": false,
      "stateMutability": "view",
      "type": "function"
    },
    {
      "constant": true,
      "inputs": [
        {
          "internalType": "uint256",
          "name": "",
          "type": "uint256"
        }
      ],
      "name": "box7_users",
      "outputs": [
        {
          "internalType": "uint256",
          "name": "id",
          "type": "uint256"
        },
        {
          "internalType": "address payable",
          "name": "addr",
          "type": "address"
        },
        {
          "internalType": "uint256",
          "name": "bal",
          "type": "uint256"
        },
        {
          "internalType": "uint256",
          "name": "paid",
          "type": "uint256"
        },
        {
          "internalType": "uint256",
          "name": "f_key",
          "type": "uint256"
        }
      ],
      "payable": false,
      "stateMutability": "view",
      "type": "function"
    },
    {
      "constant": true,
      "inputs": [
        {
          "internalType": "uint256",
          "name": "",
          "type": "uint256"
        }
      ],
      "name": "boxUsers",
      "outputs": [
        {
          "internalType": "uint256",
          "name": "id",
          "type": "uint256"
        },
        {
          "internalType": "address payable",
          "name": "addr",
          "type": "address"
        },
        {
          "internalType": "uint256",
          "name": "bal",
          "type": "uint256"
        },
        {
          "internalType": "uint256",
          "name": "paid",
          "type": "uint256"
        },
        {
          "internalType": "uint256",
          "name": "f_key",
          "type": "uint256"
        }
      ],
      "payable": false,
      "stateMutability": "view",
      "type": "function"
    },
    {
      "constant": true,
      "inputs": [],
      "name": "idCount",
      "outputs": [
        {
          "internalType": "uint256",
          "name": "",
          "type": "uint256"
        }
      ],
      "payable": false,
      "stateMutability": "view",
      "type": "function"
    },
    {
      "constant": true,
      "inputs": [],
      "name": "idCount2",
      "outputs": [
        {
          "internalType": "uint256",
          "name": "",
          "type": "uint256"
        }
      ],
      "payable": false,
      "stateMutability": "view",
      "type": "function"
    },
    {
      "constant": true,
      "inputs": [],
      "name": "idCount3",
      "outputs": [
        {
          "internalType": "uint256",
          "name": "",
          "type": "uint256"
        }
      ],
      "payable": false,
      "stateMutability": "view",
      "type": "function"
    },
    {
      "constant": true,
      "inputs": [],
      "name": "idCount4",
      "outputs": [
        {
          "internalType": "uint256",
          "name": "",
          "type": "uint256"
        }
      ],
      "payable": false,
      "stateMutability": "view",
      "type": "function"
    },
    {
      "constant": true,
      "inputs": [],
      "name": "idCount5",
      "outputs": [
        {
          "internalType": "uint256",
          "name": "",
          "type": "uint256"
        }
      ],
      "payable": false,
      "stateMutability": "view",
      "type": "function"
    },
    {
      "constant": true,
      "inputs": [],
      "name": "idCount6",
      "outputs": [
        {
          "internalType": "uint256",
          "name": "",
          "type": "uint256"
        }
      ],
      "payable": false,
      "stateMutability": "view",
      "type": "function"
    },
    {
      "constant": true,
      "inputs": [],
      "name": "idCount7",
      "outputs": [
        {
          "internalType": "uint256",
          "name": "",
          "type": "uint256"
        }
      ],
      "payable": false,
      "stateMutability": "view",
      "type": "function"
    },
    {
      "constant": true,
      "inputs": [
        {
          "internalType": "uint256",
          "name": "",
          "type": "uint256"
        },
        {
          "internalType": "uint256",
          "name": "",
          "type": "uint256"
        }
      ],
      "name": "referred_person",
      "outputs": [
        {
          "internalType": "uint256",
          "name": "id",
          "type": "uint256"
        },
        {
          "internalType": "address payable",
          "name": "addr",
          "type": "address"
        }
      ],
      "payable": false,
      "stateMutability": "view",
      "type": "function"
    },
    {
      "constant": true,
      "inputs": [],
      "name": "vipId_box1",
      "outputs": [
        {
          "internalType": "uint256",
          "name": "",
          "type": "uint256"
        }
      ],
      "payable": false,
      "stateMutability": "view",
      "type": "function"
    },
    {
      "constant": true,
      "inputs": [],
      "name": "vipId_box2",
      "outputs": [
        {
          "internalType": "uint256",
          "name": "",
          "type": "uint256"
        }
      ],
      "payable": false,
      "stateMutability": "view",
      "type": "function"
    },
    {
      "constant": true,
      "inputs": [],
      "name": "vipId_box3",
      "outputs": [
        {
          "internalType": "uint256",
          "name": "",
          "type": "uint256"
        }
      ],
      "payable": false,
      "stateMutability": "view",
      "type": "function"
    },
    {
      "constant": true,
      "inputs": [],
      "name": "vipId_box4",
      "outputs": [
        {
          "internalType": "uint256",
          "name": "",
          "type": "uint256"
        }
      ],
      "payable": false,
      "stateMutability": "view",
      "type": "function"
    },
    {
      "constant": true,
      "inputs": [],
      "name": "vipId_box5",
      "outputs": [
        {
          "internalType": "uint256",
          "name": "",
          "type": "uint256"
        }
      ],
      "payable": false,
      "stateMutability": "view",
      "type": "function"
    },
    {
      "constant": true,
      "inputs": [],
      "name": "vipId_box6",
      "outputs": [
        {
          "internalType": "uint256",
          "name": "",
          "type": "uint256"
        }
      ],
      "payable": false,
      "stateMutability": "view",
      "type": "function"
    },
    {
      "constant": true,
      "inputs": [],
      "name": "vipId_box7",
      "outputs": [
        {
          "internalType": "uint256",
          "name": "",
          "type": "uint256"
        }
      ],
      "payable": false,
      "stateMutability": "view",
      "type": "function"
    },
    {
      "constant": false,
      "inputs": [],
      "name": "sellRef",
      "outputs": [],
      "payable": false,
      "stateMutability": "nonpayable",
      "type": "function"
    },
    {
      "constant": false,
      "inputs": [],
      "name": "sub",
      "outputs": [],
      "payable": false,
      "stateMutability": "nonpayable",
      "type": "function"
    },
    {
      "constant": false,
      "inputs": [
        {
          "internalType": "uint256",
          "name": "_referer",
          "type": "uint256"
        },
        {
          "internalType": "string",
          "name": "_name",
          "type": "string"
        }
      ],
      "name": "register",
      "outputs": [],
      "payable": true,
      "stateMutability": "payable",
      "type": "function"
    },
    {
      "constant": false,
      "inputs": [
        {
          "internalType": "uint256",
          "name": "_id",
          "type": "uint256"
        },
        {
          "internalType": "uint256",
          "name": "box",
          "type": "uint256"
        }
      ],
      "name": "custom_vip",
      "outputs": [],
      "payable": false,
      "stateMutability": "nonpayable",
      "type": "function"
    },
    {
      "constant": false,
      "inputs": [
        {
          "internalType": "uint256",
          "name": "_id",
          "type": "uint256"
        }
      ],
      "name": "vip_match",
      "outputs": [],
      "payable": false,
      "stateMutability": "nonpayable",
      "type": "function"
    },
    {
      "constant": false,
      "inputs": [
        {
          "internalType": "uint256",
          "name": "_id",
          "type": "uint256"
        }
      ],
      "name": "vip_match2",
      "outputs": [],
      "payable": false,
      "stateMutability": "nonpayable",
      "type": "function"
    },
    {
      "constant": false,
      "inputs": [
        {
          "internalType": "uint256",
          "name": "_id",
          "type": "uint256"
        }
      ],
      "name": "vip_match3",
      "outputs": [],
      "payable": false,
      "stateMutability": "nonpayable",
      "type": "function"
    },
    {
      "constant": false,
      "inputs": [
        {
          "internalType": "uint256",
          "name": "_id",
          "type": "uint256"
        }
      ],
      "name": "vip_match4",
      "outputs": [],
      "payable": false,
      "stateMutability": "nonpayable",
      "type": "function"
    },
    {
      "constant": false,
      "inputs": [],
      "name": "Box1_register",
      "outputs": [],
      "payable": true,
      "stateMutability": "payable",
      "type": "function"
    },
    {
      "constant": false,
      "inputs": [
        {
          "internalType": "address payable",
          "name": "_wallet",
          "type": "address"
        }
      ],
      "name": "Box2_register",
      "outputs": [],
      "payable": false,
      "stateMutability": "nonpayable",
      "type": "function"
    },
    {
      "constant": false,
      "inputs": [
        {
          "internalType": "address payable",
          "name": "_wallet",
          "type": "address"
        }
      ],
      "name": "Box3_register",
      "outputs": [],
      "payable": false,
      "stateMutability": "nonpayable",
      "type": "function"
    },
    {
      "constant": false,
      "inputs": [
        {
          "internalType": "address payable",
          "name": "_wallet",
          "type": "address"
        }
      ],
      "name": "Box4_register",
      "outputs": [],
      "payable": false,
      "stateMutability": "nonpayable",
      "type": "function"
    },
    {
      "constant": false,
      "inputs": [
        {
          "internalType": "address payable",
          "name": "_wallet",
          "type": "address"
        }
      ],
      "name": "Box5_register",
      "outputs": [],
      "payable": true,
      "stateMutability": "payable",
      "type": "function"
    },
    {
      "constant": false,
      "inputs": [
        {
          "internalType": "address payable",
          "name": "_wallet",
          "type": "address"
        }
      ],
      "name": "Box6_register",
      "outputs": [],
      "payable": true,
      "stateMutability": "payable",
      "type": "function"
    },
    {
      "constant": false,
      "inputs": [
        {
          "internalType": "address payable",
          "name": "_wallet",
          "type": "address"
        }
      ],
      "name": "Box7_register",
      "outputs": [],
      "payable": true,
      "stateMutability": "payable",
      "type": "function"
    },
    {
      "constant": true,
      "inputs": [],
      "name": "addressBal",
      "outputs": [
        {
          "internalType": "uint256",
          "name": "",
          "type": "uint256"
        }
      ],
      "payable": false,
      "stateMutability": "view",
      "type": "function"
    },
    {
      "constant": false,
      "inputs": [
        {
          "internalType": "address payable",
          "name": "_wallet",
          "type": "address"
        },
        {
          "internalType": "uint256",
          "name": "_amount",
          "type": "uint256"
        }
      ],
      "name": "sendEther",
      "outputs": [],
      "payable": false,
      "stateMutability": "nonpayable",
      "type": "function"
    },
    {
      "constant": false,
      "inputs": [
        {
          "internalType": "uint256",
          "name": "_id",
          "type": "uint256"
        },
        {
          "internalType": "uint256",
          "name": "_amount",
          "type": "uint256"
        }
      ],
      "name": "addref",
      "outputs": [],
      "payable": false,
      "stateMutability": "nonpayable",
      "type": "function"
    }
  ],
  "bytecode": "0x60806040523480156200001157600080fd5b506002600081548092919060010191905055506004600081548092919060010191905055506040518060a0016040528060025481526020016040518060400160405280600681526020017f4e6174696f6e000000000000000000000000000000000000000000000000000081525081526020013373ffffffffffffffffffffffffffffffffffffffff168152602001600081526020016000815250600160006002548152602001908152602001600020600082015181600001556020820151816001019080519060200190620000e99291906200021f565b5060408201518160020160006101000a81548173ffffffffffffffffffffffffffffffffffffffff021916908373ffffffffffffffffffffffffffffffffffffffff16021790555060608201518160030155608082015181600401559050506040518060a0016040528060045481526020013373ffffffffffffffffffffffffffffffffffffffff1681526020016701cdda4faccd00008152602001600181526020016002548152506003600060045481526020019081526020016000206000820151816000015560208201518160010160006101000a81548173ffffffffffffffffffffffffffffffffffffffff021916908373ffffffffffffffffffffffffffffffffffffffff160217905550604082015181600201556060820151816003015560808201518160040155905050620002ce565b828054600181600116156101000203166002900490600052602060002090601f016020900481019282601f106200026257805160ff191683800117855562000293565b8280016001018555821562000293579182015b828111156200029257825182559160200191906001019062000275565b5b509050620002a29190620002a6565b5090565b620002cb91905b80821115620002c7576000816000905550600101620002ad565b5090565b90565b61578680620002de6000396000f3fe6080604052600436106102ae5760003560e01c80637d1ecce511610175578063c1756a2c116100dc578063dbff041c11610095578063f3da0f191161006f578063f3da0f19146110a3578063f42a0fbd1461119f578063fd416c04146111e4578063feab2ce81461120f576102ae565b8063dbff041c14610fc1578063de77dcb11461104d578063e6e4623814611078576102ae565b8063c1756a2c14610dbb578063c25626ad14610e16578063c335638e14610e7f578063c54124be14610eaa578063ca1aa53614610ec1578063d960840914610f58576102ae565b80639ad2ea701161012e5780639ad2ea7014610b2d578063a00fd3c814610bc4578063a482449014610c89578063a568c0a114610d20578063a606c15514610d65578063a999664514610d90576102ae565b80637d1ecce5146108ec578063836b66bb14610930578063879bc32c1461096b57806389ff575614610a0257806398b458a514610a2d57806398f3a82914610ac4576102ae565b80634f809861116102195780636ebbc58b116101d25780636ebbc58b14610720578063705584da146107b757806373389a4614610820578063778acfe41461085b5780637c47850b146108965780637cf57831146108c1576102ae565b80634f809861146105ad5780635080eec3146105d8578063647efa5d146105ef57806367586be61461063357806369f07dad1461065e5780636e3d8f7014610689576102ae565b806326d5e4591161026b57806326d5e459146104445780632fec53dc146104ad57806330852761146104d8578063318256c114610503578063419e4a0e1461052e57806348b2c69814610572576102ae565b80630691f72f146102b3578063080ecde2146102bd578063081d950e146102e857806312b58130146103395780631561ab751461038a5780631adaa503146103f3575b600080fd5b6102bb611278565b005b3480156102c957600080fd5b506102d2611a99565b6040518082815260200191505060405180910390f35b3480156102f457600080fd5b506103376004803603602081101561030b57600080fd5b81019080803573ffffffffffffffffffffffffffffffffffffffff169060200190929190505050611a9f565b005b34801561034557600080fd5b506103886004803603602081101561035c57600080fd5b81019080803573ffffffffffffffffffffffffffffffffffffffff169060200190929190505050612193565b005b34801561039657600080fd5b506103d9600480360360208110156103ad57600080fd5b81019080803573ffffffffffffffffffffffffffffffffffffffff169060200190929190505050612887565b604051808215151515815260200191505060405180910390f35b3480156103ff57600080fd5b506104426004803603602081101561041657600080fd5b81019080803573ffffffffffffffffffffffffffffffffffffffff1690602001909291905050506128a7565b005b34801561045057600080fd5b506104936004803603602081101561046757600080fd5b81019080803573ffffffffffffffffffffffffffffffffffffffff169060200190929190505050612f9b565b604051808215151515815260200191505060405180910390f35b3480156104b957600080fd5b506104c2612fbb565b6040518082815260200191505060405180910390f35b3480156104e457600080fd5b506104ed612fc1565b6040518082815260200191505060405180910390f35b34801561050f57600080fd5b50610518612fc7565b6040518082815260200191505060405180910390f35b6105706004803603602081101561054457600080fd5b81019080803573ffffffffffffffffffffffffffffffffffffffff169060200190929190505050612fcd565b005b34801561057e57600080fd5b506105ab6004803603602081101561059557600080fd5b8101908080359060200190929190505050613425565b005b3480156105b957600080fd5b506105c26134c6565b6040518082815260200191505060405180910390f35b3480156105e457600080fd5b506105ed6134cc565b005b6106316004803603602081101561060557600080fd5b81019080803573ffffffffffffffffffffffffffffffffffffffff169060200190929190505050613687565b005b34801561063f57600080fd5b50610648613b1b565b6040518082815260200191505060405180910390f35b34801561066a57600080fd5b50610673613b23565b6040518082815260200191505060405180910390f35b34801561069557600080fd5b506106c2600480360360208110156106ac57600080fd5b8101908080359060200190929190505050613b29565b604051808681526020018573ffffffffffffffffffffffffffffffffffffffff1673ffffffffffffffffffffffffffffffffffffffff1681526020018481526020018381526020018281526020019550505050505060405180910390f35b34801561072c57600080fd5b506107596004803603602081101561074357600080fd5b8101908080359060200190929190505050613b7f565b604051808681526020018573ffffffffffffffffffffffffffffffffffffffff1673ffffffffffffffffffffffffffffffffffffffff1681526020018481526020018381526020018281526020019550505050505060405180910390f35b3480156107c357600080fd5b50610806600480360360208110156107da57600080fd5b81019080803573ffffffffffffffffffffffffffffffffffffffff169060200190929190505050613bd5565b604051808215151515815260200191505060405180910390f35b34801561082c57600080fd5b506108596004803603602081101561084357600080fd5b8101908080359060200190929190505050613bf5565b005b34801561086757600080fd5b506108946004803603602081101561087e57600080fd5b8101908080359060200190929190505050613c96565b005b3480156108a257600080fd5b506108ab613d37565b6040518082815260200191505060405180910390f35b3480156108cd57600080fd5b506108d6613d3d565b6040518082815260200191505060405180910390f35b61092e6004803603602081101561090257600080fd5b81019080803573ffffffffffffffffffffffffffffffffffffffff169060200190929190505050613d43565b005b34801561093c57600080fd5b506109696004803603602081101561095357600080fd5b81019080803590602001909291905050506141d7565b005b34801561097757600080fd5b506109a46004803603602081101561098e57600080fd5b8101908080359060200190929190505050614278565b604051808681526020018573ffffffffffffffffffffffffffffffffffffffff1673ffffffffffffffffffffffffffffffffffffffff1681526020018481526020018381526020018281526020019550505050505060405180910390f35b348015610a0e57600080fd5b50610a176142ce565b6040518082815260200191505060405180910390f35b348015610a3957600080fd5b50610a6660048036036020811015610a5057600080fd5b81019080803590602001909291905050506142d4565b604051808681526020018573ffffffffffffffffffffffffffffffffffffffff1673ffffffffffffffffffffffffffffffffffffffff1681526020018481526020018381526020018281526020019550505050505060405180910390f35b348015610ad057600080fd5b50610b1360048036036020811015610ae757600080fd5b81019080803573ffffffffffffffffffffffffffffffffffffffff16906020019092919050505061432a565b604051808215151515815260200191505060405180910390f35b348015610b3957600080fd5b50610b6660048036036020811015610b5057600080fd5b810190808035906020019092919050505061434a565b604051808681526020018573ffffffffffffffffffffffffffffffffffffffff1673ffffffffffffffffffffffffffffffffffffffff1681526020018481526020018381526020018281526020019550505050505060405180910390f35b610c8760048036036040811015610bda57600080fd5b810190808035906020019092919080359060200190640100000000811115610c0157600080fd5b820183602082011115610c1357600080fd5b80359060200191846001830284011164010000000083111715610c3557600080fd5b91908080601f016020809104026020016040519081016040528093929190818152602001838380828437600081840152601f19601f8201169050808301925050505050505091929192905050506143a0565b005b348015610c9557600080fd5b50610cc260048036036020811015610cac57600080fd5b81019080803590602001909291905050506147a2565b604051808681526020018573ffffffffffffffffffffffffffffffffffffffff1673ffffffffffffffffffffffffffffffffffffffff1681526020018481526020018381526020018281526020019550505050505060405180910390f35b348015610d2c57600080fd5b50610d6360048036036040811015610d4357600080fd5b8101908080359060200190929190803590602001909291905050506147f8565b005b348015610d7157600080fd5b50610d7a614857565b6040518082815260200191505060405180910390f35b348015610d9c57600080fd5b50610da561485d565b6040518082815260200191505060405180910390f35b348015610dc757600080fd5b50610e1460048036036040811015610dde57600080fd5b81019080803573ffffffffffffffffffffffffffffffffffffffff16906020019092919080359060200190929190505050614863565b005b348015610e2257600080fd5b50610e6560048036036020811015610e3957600080fd5b81019080803573ffffffffffffffffffffffffffffffffffffffff1690602001909291905050506148ae565b604051808215151515815260200191505060405180910390f35b348015610e8b57600080fd5b50610e946148ce565b6040518082815260200191505060405180910390f35b348015610eb657600080fd5b50610ebf6148d4565b005b348015610ecd57600080fd5b50610efa60048036036020811015610ee457600080fd5b810190808035906020019092919050505061537b565b604051808681526020018573ffffffffffffffffffffffffffffffffffffffff1673ffffffffffffffffffffffffffffffffffffffff1681526020018481526020018381526020018281526020019550505050505060405180910390f35b348015610f6457600080fd5b50610fa760048036036020811015610f7b57600080fd5b81019080803573ffffffffffffffffffffffffffffffffffffffff1690602001909291905050506153d1565b604051808215151515815260200191505060405180910390f35b348015610fcd57600080fd5b5061100460048036036040811015610fe457600080fd5b8101908080359060200190929190803590602001909291905050506153f1565b604051808381526020018273ffffffffffffffffffffffffffffffffffffffff1673ffffffffffffffffffffffffffffffffffffffff1681526020019250505060405180910390f35b34801561105957600080fd5b50611062615442565b6040518082815260200191505060405180910390f35b34801561108457600080fd5b5061108d615448565b6040518082815260200191505060405180910390f35b3480156110af57600080fd5b506110dc600480360360208110156110c657600080fd5b810190808035906020019092919050505061544e565b60405180868152602001806020018573ffffffffffffffffffffffffffffffffffffffff1673ffffffffffffffffffffffffffffffffffffffff168152602001848152602001838152602001828103825286818151815260200191508051906020019080838360005b83811015611160578082015181840152602081019050611145565b50505050905090810190601f16801561118d5780820380516001836020036101000a031916815260200191505b50965050505050505060405180910390f35b3480156111ab57600080fd5b506111e2600480360360408110156111c257600080fd5b81019080803590602001909291908035906020019092919050505061553c565b005b3480156111f057600080fd5b506111f9615564565b6040518082815260200191505060405180910390f35b34801561121b57600080fd5b5061125e6004803603602081101561123257600080fd5b81019080803573ffffffffffffffffffffffffffffffffffffffff16906020019092919050505061556a565b604051808215151515815260200191505060405180910390f35b60006701cdda4faccd000090508034146112dd576040517f08c379a000000000000000000000000000000000000000000000000000000000815260040180806020018281038252602c815260200180615654602c913960400191505060405180910390fd5b60008090505b60045481116113b4573373ffffffffffffffffffffffffffffffffffffffff166003600083815260200190815260200160002060010160009054906101000a900473ffffffffffffffffffffffffffffffffffffffff1673ffffffffffffffffffffffffffffffffffffffff1614156113a7576040517f08c379a00000000000000000000000000000000000000000000000000000000081526004018080602001828103825260298152602001806156806029913960400191505060405180910390fd5b80806001019150506112e3565b5060001515600560003373ffffffffffffffffffffffffffffffffffffffff1673ffffffffffffffffffffffffffffffffffffffff16815260200190815260200160002060009054906101000a900460ff1615151461145e576040517f08c379a00000000000000000000000000000000000000000000000000000000081526004018080602001828103825260288152602001806156a96028913960400191505060405180910390fd5b60046000815480929190600101919050555060008090505b6002548111611a95573373ffffffffffffffffffffffffffffffffffffffff166001600083815260200190815260200160002060020160009054906101000a900473ffffffffffffffffffffffffffffffffffffffff1673ffffffffffffffffffffffffffffffffffffffff161415611a88576040518060a0016040528060045481526020013373ffffffffffffffffffffffffffffffffffffffff1681526020016000815260200160008152602001828152506003600060045481526020019081526020016000206000820151816000015560208201518160010160006101000a81548173ffffffffffffffffffffffffffffffffffffffff021916908373ffffffffffffffffffffffffffffffffffffffff1602179055506040820151816002015560608201518160030155608082015181600401559050506000601854111561180f57600260036000601854815260200190815260200160002060030154141561166357600060036000601854815260200190815260200160002060010160009054906101000a900473ffffffffffffffffffffffffffffffffffffffff1690508073ffffffffffffffffffffffffffffffffffffffff166108fc849081150290604051600060405180830381858888f19350505050158015611660573d6000803e3d6000fd5b50505b3460036000601854815260200190815260200160002060020160008282540192505081905550600360006018548152602001908152602001600020600301600081548092919060010191905055506003806000601854815260200190815260200160002060030154141561180a5761171260036000601854815260200190815260200160002060010160009054906101000a900473ffffffffffffffffffffffffffffffffffffffff166128a7565b60016005600060036000601854815260200190815260200160002060010160009054906101000a900473ffffffffffffffffffffffffffffffffffffffff1673ffffffffffffffffffffffffffffffffffffffff1673ffffffffffffffffffffffffffffffffffffffff16815260200190815260200160002060006101000a81548160ff0219169083151502179055506003600060185481526020019081526020016000206000808201600090556001820160006101000a81549073ffffffffffffffffffffffffffffffffffffffff0219169055600282016000905560038201600090556004820160009055505060006018819055505b611a87565b60008090505b6004548111611a8557600060036000838152602001908152602001600020600001541115611a785760006003600083815260200190815260200160002060010160009054906101000a900473ffffffffffffffffffffffffffffffffffffffff1690506002600360008481526020019081526020016000206003015414156118df578073ffffffffffffffffffffffffffffffffffffffff166108fc859081150290604051600060405180830381858888f193505050501580156118dd573d6000803e3d6000fd5b505b34600360008481526020019081526020016000206002016000828254019250508190555060036000838152602001908152602001600020600301600081548092919060010191905055506003806000848152602001908152602001600020600301541415611a72576119866003600084815260200190815260200160002060010160009054906101000a900473ffffffffffffffffffffffffffffffffffffffff166128a7565b6001600560006003600086815260200190815260200160002060010160009054906101000a900473ffffffffffffffffffffffffffffffffffffffff1673ffffffffffffffffffffffffffffffffffffffff1673ffffffffffffffffffffffffffffffffffffffff16815260200190815260200160002060006101000a81548160ff021916908315150217905550600360008381526020019081526020016000206000808201600090556001820160006101000a81549073ffffffffffffffffffffffffffffffffffffffff021916905560028201600090556003820160009055600482016000905550505b50611a85565b8080600101915050611815565b505b5b8080600101915050611476565b5050565b601c5481565b6000670737693eb3340000905060001515600760008473ffffffffffffffffffffffffffffffffffffffff1673ffffffffffffffffffffffffffffffffffffffff16815260200190815260200160002060009054906101000a900460ff16151514611b55576040517f08c379a00000000000000000000000000000000000000000000000000000000081526004018080602001828103825260288152602001806156a96028913960400191505060405180910390fd5b600f6000815480929190600101919050555060008090505b600254811161218e578273ffffffffffffffffffffffffffffffffffffffff166001600083815260200190815260200160002060020160009054906101000a900473ffffffffffffffffffffffffffffffffffffffff1673ffffffffffffffffffffffffffffffffffffffff161415612181576040518060a00160405280600f5481526020018473ffffffffffffffffffffffffffffffffffffffff168152602001600081526020016000815260200182815250600e6000600f5481526020019081526020016000206000820151816000015560208201518160010160006101000a81548173ffffffffffffffffffffffffffffffffffffffff021916908373ffffffffffffffffffffffffffffffffffffffff1602179055506040820151816002015560608201518160030155608082015181600401559050506000601a541115611f07576002600e6000601a548152602001908152602001600020600301541415611d5a576000600e6000601a54815260200190815260200160002060010160009054906101000a900473ffffffffffffffffffffffffffffffffffffffff1690508073ffffffffffffffffffffffffffffffffffffffff166108fc849081150290604051600060405180830381858888f19350505050158015611d57573d6000803e3d6000fd5b50505b81600e6000601a54815260200190815260200160002060020160008282540192505081905550600e6000601a548152602001908152602001600020600301600081548092919060010191905055506003600e6000601a548152602001908152602001600020600301541415611f0257611e0a600e6000601a54815260200190815260200160002060010160009054906101000a900473ffffffffffffffffffffffffffffffffffffffff16612193565b600160076000600e6000601a54815260200190815260200160002060010160009054906101000a900473ffffffffffffffffffffffffffffffffffffffff1673ffffffffffffffffffffffffffffffffffffffff1673ffffffffffffffffffffffffffffffffffffffff16815260200190815260200160002060006101000a81548160ff021916908315150217905550600e6000601a5481526020019081526020016000206000808201600090556001820160006101000a81549073ffffffffffffffffffffffffffffffffffffffff021916905560028201600090556003820160009055600482016000905550506000601a819055505b612180565b60008090505b600f54811161217e576000600e6000838152602001908152602001600020600001541115612171576000600e600083815260200190815260200160002060010160009054906101000a900473ffffffffffffffffffffffffffffffffffffffff1690506002600e6000848152602001908152602001600020600301541415611fd7578073ffffffffffffffffffffffffffffffffffffffff166108fc859081150290604051600060405180830381858888f19350505050158015611fd5573d6000803e3d6000fd5b505b83600e600084815260200190815260200160002060020160008282540192505081905550600e6000838152602001908152602001600020600301600081548092919060010191905055506003600e600084815260200190815260200160002060030154141561216b5761207f600e600084815260200190815260200160002060010160009054906101000a900473ffffffffffffffffffffffffffffffffffffffff16612193565b600160076000600e600086815260200190815260200160002060010160009054906101000a900473ffffffffffffffffffffffffffffffffffffffff1673ffffffffffffffffffffffffffffffffffffffff1673ffffffffffffffffffffffffffffffffffffffff16815260200190815260200160002060006101000a81548160ff021916908315150217905550600e60008381526020019081526020016000206000808201600090556001820160006101000a81549073ffffffffffffffffffffffffffffffffffffffff021916905560028201600090556003820160009055600482016000905550505b5061217e565b8080600101915050611f0d565b505b5b8080600101915050611b6d565b505050565b6000670e6ed27d66680000905060001515600860008473ffffffffffffffffffffffffffffffffffffffff1673ffffffffffffffffffffffffffffffffffffffff16815260200190815260200160002060009054906101000a900460ff16151514612249576040517f08c379a00000000000000000000000000000000000000000000000000000000081526004018080602001828103825260288152602001806156a96028913960400191505060405180910390fd5b60116000815480929190600101919050555060008090505b6002548111612882578273ffffffffffffffffffffffffffffffffffffffff166001600083815260200190815260200160002060020160009054906101000a900473ffffffffffffffffffffffffffffffffffffffff1673ffffffffffffffffffffffffffffffffffffffff161415612875576040518060a0016040528060115481526020018473ffffffffffffffffffffffffffffffffffffffff1681526020016000815260200160008152602001828152506010600060115481526020019081526020016000206000820151816000015560208201518160010160006101000a81548173ffffffffffffffffffffffffffffffffffffffff021916908373ffffffffffffffffffffffffffffffffffffffff1602179055506040820151816002015560608201518160030155608082015181600401559050506000601b5411156125fb57600260106000601b54815260200190815260200160002060030154141561244e57600060106000601b54815260200190815260200160002060010160009054906101000a900473ffffffffffffffffffffffffffffffffffffffff1690508073ffffffffffffffffffffffffffffffffffffffff166108fc849081150290604051600060405180830381858888f1935050505015801561244b573d6000803e3d6000fd5b50505b8160106000601b5481526020019081526020016000206002016000828254019250508190555060106000601b54815260200190815260200160002060030160008154809291906001019190505550600360106000601b5481526020019081526020016000206003015414156125f6576124fe60106000601b54815260200190815260200160002060010160009054906101000a900473ffffffffffffffffffffffffffffffffffffffff16613687565b60016008600060106000601b54815260200190815260200160002060010160009054906101000a900473ffffffffffffffffffffffffffffffffffffffff1673ffffffffffffffffffffffffffffffffffffffff1673ffffffffffffffffffffffffffffffffffffffff16815260200190815260200160002060006101000a81548160ff02191690831515021790555060106000601b5481526020019081526020016000206000808201600090556001820160006101000a81549073ffffffffffffffffffffffffffffffffffffffff021916905560028201600090556003820160009055600482016000905550506000601b819055505b612874565b60008090505b6011548111612872576000601060008381526020019081526020016000206000015411156128655760006010600083815260200190815260200160002060010160009054906101000a900473ffffffffffffffffffffffffffffffffffffffff1690506002601060008481526020019081526020016000206003015414156126cb578073ffffffffffffffffffffffffffffffffffffffff166108fc859081150290604051600060405180830381858888f193505050501580156126c9573d6000803e3d6000fd5b505b836010600084815260200190815260200160002060020160008282540192505081905550601060008381526020019081526020016000206003016000815480929190600101919050555060036010600084815260200190815260200160002060030154141561285f576127736010600084815260200190815260200160002060010160009054906101000a900473ffffffffffffffffffffffffffffffffffffffff16613687565b6001600860006010600086815260200190815260200160002060010160009054906101000a900473ffffffffffffffffffffffffffffffffffffffff1673ffffffffffffffffffffffffffffffffffffffff1673ffffffffffffffffffffffffffffffffffffffff16815260200190815260200160002060006101000a81548160ff021916908315150217905550601060008381526020019081526020016000206000808201600090556001820160006101000a81549073ffffffffffffffffffffffffffffffffffffffff021916905560028201600090556003820160009055600482016000905550505b50612872565b8080600101915050612601565b505b5b8080600101915050612261565b505050565b60086020528060005260406000206000915054906101000a900460ff1681565b600067039bb49f599a0000905060001515600660008473ffffffffffffffffffffffffffffffffffffffff1673ffffffffffffffffffffffffffffffffffffffff16815260200190815260200160002060009054906101000a900460ff1615151461295d576040517f08c379a00000000000000000000000000000000000000000000000000000000081526004018080602001828103825260288152602001806156a96028913960400191505060405180910390fd5b600d6000815480929190600101919050555060008090505b6002548111612f96578273ffffffffffffffffffffffffffffffffffffffff166001600083815260200190815260200160002060020160009054906101000a900473ffffffffffffffffffffffffffffffffffffffff1673ffffffffffffffffffffffffffffffffffffffff161415612f89576040518060a00160405280600d5481526020018473ffffffffffffffffffffffffffffffffffffffff168152602001600081526020016000815260200182815250600c6000600d5481526020019081526020016000206000820151816000015560208201518160010160006101000a81548173ffffffffffffffffffffffffffffffffffffffff021916908373ffffffffffffffffffffffffffffffffffffffff16021790555060408201518160020155606082015181600301556080820151816004015590505060006019541115612d0f576002600c60006019548152602001908152602001600020600301541415612b62576000600c6000601954815260200190815260200160002060010160009054906101000a900473ffffffffffffffffffffffffffffffffffffffff1690508073ffffffffffffffffffffffffffffffffffffffff166108fc849081150290604051600060405180830381858888f19350505050158015612b5f573d6000803e3d6000fd5b50505b81600c6000601954815260200190815260200160002060020160008282540192505081905550600c60006019548152602001908152602001600020600301600081548092919060010191905055506003600c60006019548152602001908152602001600020600301541415612d0a57612c12600c6000601954815260200190815260200160002060010160009054906101000a900473ffffffffffffffffffffffffffffffffffffffff16611a9f565b600160066000600c6000601954815260200190815260200160002060010160009054906101000a900473ffffffffffffffffffffffffffffffffffffffff1673ffffffffffffffffffffffffffffffffffffffff1673ffffffffffffffffffffffffffffffffffffffff16815260200190815260200160002060006101000a81548160ff021916908315150217905550600c600060195481526020019081526020016000206000808201600090556001820160006101000a81549073ffffffffffffffffffffffffffffffffffffffff0219169055600282016000905560038201600090556004820160009055505060006019819055505b612f88565b60008090505b600d548111612f86576000600c6000838152602001908152602001600020600001541115612f79576000600c600083815260200190815260200160002060010160009054906101000a900473ffffffffffffffffffffffffffffffffffffffff1690506002600c6000848152602001908152602001600020600301541415612ddf578073ffffffffffffffffffffffffffffffffffffffff166108fc859081150290604051600060405180830381858888f19350505050158015612ddd573d6000803e3d6000fd5b505b83600c600084815260200190815260200160002060020160008282540192505081905550600c6000838152602001908152602001600020600301600081548092919060010191905055506003600c6000848152602001908152602001600020600301541415612f7357612e87600c600084815260200190815260200160002060010160009054906101000a900473ffffffffffffffffffffffffffffffffffffffff16611a9f565b600160066000600c600086815260200190815260200160002060010160009054906101000a900473ffffffffffffffffffffffffffffffffffffffff1673ffffffffffffffffffffffffffffffffffffffff1673ffffffffffffffffffffffffffffffffffffffff16815260200190815260200160002060006101000a81548160ff021916908315150217905550600c60008381526020019081526020016000206000808201600090556001820160006101000a81549073ffffffffffffffffffffffffffffffffffffffff021916905560028201600090556003820160009055600482016000905550505b50612f86565b8080600101915050612d15565b505b5b8080600101915050612975565b505050565b60076020528060005260406000206000915054906101000a900460ff1681565b601a5481565b600f5481565b60025481565b600067737693eb33400000905060001515600b60008473ffffffffffffffffffffffffffffffffffffffff1673ffffffffffffffffffffffffffffffffffffffff16815260200190815260200160002060009054906101000a900460ff16151514613083576040517f08c379a00000000000000000000000000000000000000000000000000000000081526004018080602001828103825260288152602001806156a96028913960400191505060405180910390fd5b60176000815480929190600101919050555060008090505b6002548111613420578273ffffffffffffffffffffffffffffffffffffffff166001600083815260200190815260200160002060020160009054906101000a900473ffffffffffffffffffffffffffffffffffffffff1673ffffffffffffffffffffffffffffffffffffffff161415613413576040518060a0016040528060175481526020018473ffffffffffffffffffffffffffffffffffffffff1681526020016000815260200160008152602001828152506016600060175481526020019081526020016000206000820151816000015560208201518160010160006101000a81548173ffffffffffffffffffffffffffffffffffffffff021916908373ffffffffffffffffffffffffffffffffffffffff16021790555060408201518160020155606082015181600301556080820151816004015590505060008090505b6017548111613411576000601660008381526020019081526020016000206000015411156134045760006016600083815260200190815260200160002060010160009054906101000a900473ffffffffffffffffffffffffffffffffffffffff1690506002601660008481526020019081526020016000206003015414156132a9578073ffffffffffffffffffffffffffffffffffffffff166108fc600386029081150290604051600060405180830381858888f193505050501580156132a7573d6000803e3d6000fd5b505b83601660008481526020019081526020016000206002016000828254019250508190555060166000838152602001908152602001600020600301600081548092919060010191905055506003601660008481526020019081526020016000206003015414156133fe576001600b60006016600086815260200190815260200160002060010160009054906101000a900473ffffffffffffffffffffffffffffffffffffffff1673ffffffffffffffffffffffffffffffffffffffff1673ffffffffffffffffffffffffffffffffffffffff16815260200190815260200160002060006101000a81548160ff021916908315150217905550601660008381526020019081526020016000206000808201600090556001820160006101000a81549073ffffffffffffffffffffffffffffffffffffffff021916905560028201600090556003820160009055600482016000905550505b50613411565b80806001019150506131dc565b505b808060010191505061309b565b505050565b600060195414613480576040517f08c379a00000000000000000000000000000000000000000000000000000000081526004018080602001828103825260298152602001806156d16029913960400191505060405180910390fd5b60008090505b600d5481116134c25781600c60008381526020019081526020016000206004015414156134b557816019819055505b8080600101915050613486565b5050565b60195481565b60008090505b6002548111613684573373ffffffffffffffffffffffffffffffffffffffff166001600083815260200190815260200160002060020160009054906101000a900473ffffffffffffffffffffffffffffffffffffffff1673ffffffffffffffffffffffffffffffffffffffff16141561367757600060016000838152602001908152602001600020600401549050600081116135b9576040517f08c379a00000000000000000000000000000000000000000000000000000000081526004018080602001828103825260248152602001806156306024913960400191505060405180910390fd5b80471015613612576040517f08c379a00000000000000000000000000000000000000000000000000000000081526004018080602001828103825260288152602001806156fa6028913960400191505060405180910390fd5b3373ffffffffffffffffffffffffffffffffffffffff166108fc829081150290604051600060405180830381858888f19350505050158015613658573d6000803e3d6000fd5b5060006001600084815260200190815260200160002060040181905550505b80806001019150506134d2565b50565b6000671cdda4faccd00000905060001515600960008473ffffffffffffffffffffffffffffffffffffffff1673ffffffffffffffffffffffffffffffffffffffff16815260200190815260200160002060009054906101000a900460ff1615151461373d576040517f08c379a00000000000000000000000000000000000000000000000000000000081526004018080602001828103825260288152602001806156a96028913960400191505060405180910390fd5b60136000815480929190600101919050555060008090505b6002548111613b16578273ffffffffffffffffffffffffffffffffffffffff166001600083815260200190815260200160002060020160009054906101000a900473ffffffffffffffffffffffffffffffffffffffff1673ffffffffffffffffffffffffffffffffffffffff161415613b09576040518060a0016040528060135481526020018473ffffffffffffffffffffffffffffffffffffffff1681526020016000815260200160008152602001828152506012600060135481526020019081526020016000206000820151816000015560208201518160010160006101000a81548173ffffffffffffffffffffffffffffffffffffffff021916908373ffffffffffffffffffffffffffffffffffffffff16021790555060408201518160020155606082015181600301556080820151816004015590505060008090505b6013548111613b0757600060126000838152602001908152602001600020600001541115613afa5760006012600083815260200190815260200160002060010160009054906101000a900473ffffffffffffffffffffffffffffffffffffffff169050600260126000848152602001908152602001600020600301541415613960578073ffffffffffffffffffffffffffffffffffffffff166108fc859081150290604051600060405180830381858888f1935050505015801561395e573d6000803e3d6000fd5b505b8360126000848152602001908152602001600020600201600082825401925050819055506012600083815260200190815260200160002060030160008154809291906001019190505550600360126000848152602001908152602001600020600301541415613af457613a086012600084815260200190815260200160002060010160009054906101000a900473ffffffffffffffffffffffffffffffffffffffff16613d43565b6001600960006012600086815260200190815260200160002060010160009054906101000a900473ffffffffffffffffffffffffffffffffffffffff1673ffffffffffffffffffffffffffffffffffffffff1673ffffffffffffffffffffffffffffffffffffffff16815260200190815260200160002060006101000a81548160ff021916908315150217905550601260008381526020019081526020016000206000808201600090556001820160006101000a81549073ffffffffffffffffffffffffffffffffffffffff021916905560028201600090556003820160009055600482016000905550505b50613b07565b8080600101915050613896565b505b8080600101915050613755565b505050565b600047905090565b60135481565b600e6020528060005260406000206000915090508060000154908060010160009054906101000a900473ffffffffffffffffffffffffffffffffffffffff16908060020154908060030154908060040154905085565b60166020528060005260406000206000915090508060000154908060010160009054906101000a900473ffffffffffffffffffffffffffffffffffffffff16908060020154908060030154908060040154905085565b600a6020528060005260406000206000915054906101000a900460ff1681565b6000601b5414613c50576040517f08c379a00000000000000000000000000000000000000000000000000000000081526004018080602001828103825260298152602001806156d16029913960400191505060405180910390fd5b60008090505b6011548111613c92578160106000838152602001908152602001600020600401541415613c855781601b819055505b8080600101915050613c56565b5050565b6000601a5414613cf1576040517f08c379a00000000000000000000000000000000000000000000000000000000081526004018080602001828103825260298152602001806156d16029913960400191505060405180910390fd5b60008090505b600f548111613d335781600e6000838152602001908152602001600020600401541415613d265781601a819055505b8080600101915050613cf7565b5050565b60175481565b600d5481565b60006739bb49f599a00000905060001515600a60008473ffffffffffffffffffffffffffffffffffffffff1673ffffffffffffffffffffffffffffffffffffffff16815260200190815260200160002060009054906101000a900460ff16151514613df9576040517f08c379a00000000000000000000000000000000000000000000000000000000081526004018080602001828103825260288152602001806156a96028913960400191505060405180910390fd5b60156000815480929190600101919050555060008090505b60025481116141d2578273ffffffffffffffffffffffffffffffffffffffff166001600083815260200190815260200160002060020160009054906101000a900473ffffffffffffffffffffffffffffffffffffffff1673ffffffffffffffffffffffffffffffffffffffff1614156141c5576040518060a0016040528060155481526020018473ffffffffffffffffffffffffffffffffffffffff1681526020016000815260200160008152602001828152506014600060155481526020019081526020016000206000820151816000015560208201518160010160006101000a81548173ffffffffffffffffffffffffffffffffffffffff021916908373ffffffffffffffffffffffffffffffffffffffff16021790555060408201518160020155606082015181600301556080820151816004015590505060008090505b60155481116141c3576000601460008381526020019081526020016000206000015411156141b65760006014600083815260200190815260200160002060010160009054906101000a900473ffffffffffffffffffffffffffffffffffffffff16905060026014600084815260200190815260200160002060030154141561401c578073ffffffffffffffffffffffffffffffffffffffff166108fc859081150290604051600060405180830381858888f1935050505015801561401a573d6000803e3d6000fd5b505b83601460008481526020019081526020016000206002016000828254019250508190555060146000838152602001908152602001600020600301600081548092919060010191905055506003601460008481526020019081526020016000206003015414156141b0576140c46014600084815260200190815260200160002060010160009054906101000a900473ffffffffffffffffffffffffffffffffffffffff16612fcd565b6001600a60006014600086815260200190815260200160002060010160009054906101000a900473ffffffffffffffffffffffffffffffffffffffff1673ffffffffffffffffffffffffffffffffffffffff1673ffffffffffffffffffffffffffffffffffffffff16815260200190815260200160002060006101000a81548160ff021916908315150217905550601460008381526020019081526020016000206000808201600090556001820160006101000a81549073ffffffffffffffffffffffffffffffffffffffff021916905560028201600090556003820160009055600482016000905550505b506141c3565b8080600101915050613f52565b505b8080600101915050613e11565b505050565b600060185414614232576040517f08c379a00000000000000000000000000000000000000000000000000000000081526004018080602001828103825260298152602001806156d16029913960400191505060405180910390fd5b60008090505b600454811161427457816003600083815260200190815260200160002060040154141561426757816018819055505b8080600101915050614238565b5050565b60146020528060005260406000206000915090508060000154908060010160009054906101000a900473ffffffffffffffffffffffffffffffffffffffff16908060020154908060030154908060040154905085565b601e5481565b60126020528060005260406000206000915090508060000154908060010160009054906101000a900473ffffffffffffffffffffffffffffffffffffffff16908060020154908060030154908060040154905085565b60096020528060005260406000206000915054906101000a900460ff1681565b600c6020528060005260406000206000915090508060000154908060010160009054906101000a900473ffffffffffffffffffffffffffffffffffffffff16908060020154908060030154908060040154905085565b600066b1a2bc2ec500009050803414614404576040517f08c379a000000000000000000000000000000000000000000000000000000000815260040180806020018281038252602c815260200180615654602c913960400191505060405180910390fd5b60008090505b60025481116144f8573373ffffffffffffffffffffffffffffffffffffffff166001600083815260200190815260200160002060020160009054906101000a900473ffffffffffffffffffffffffffffffffffffffff1673ffffffffffffffffffffffffffffffffffffffff1614156144eb576040517f08c379a000000000000000000000000000000000000000000000000000000000815260040180806020018281038252601a8152602001807f596f752061726520616c7265616479207265676973746572656400000000000081525060200191505060405180910390fd5b808060010191505061440a565b506002600081548092919060010191905055506040518060a0016040528060025481526020018381526020013373ffffffffffffffffffffffffffffffffffffffff16815260200160008152602001600081525060016000600254815260200190815260200160002060008201518160000155602082015181600101908051906020019061458792919061558a565b5060408201518160020160006101000a81548173ffffffffffffffffffffffffffffffffffffffff021916908373ffffffffffffffffffffffffffffffffffffffff160217905550606082015181600301556080820151816004015590505060008090505b600254811161479c57836001600083815260200190815260200160002060000154141561478f5760016000828152602001908152602001600020600301600081548092919060010191905055506064601483028161464657fe5b046001600083815260200190815260200160002060040160008282540192505081905550604051806040016040528060025481526020013373ffffffffffffffffffffffffffffffffffffffff16815250600080838152602001908152602001600020600060025481526020019081526020016000206000820151816000015560208201518160010160006101000a81548173ffffffffffffffffffffffffffffffffffffffff021916908373ffffffffffffffffffffffffffffffffffffffff160217905550905050600160006001815260200190815260200160002060020160009054906101000a900473ffffffffffffffffffffffffffffffffffffffff1673ffffffffffffffffffffffffffffffffffffffff166108fc839081150290604051600060405180830381858888f1935050505015801561478d573d6000803e3d6000fd5b505b80806001019150506145ec565b50505050565b60036020528060005260406000206000915090508060000154908060010160009054906101000a900473ffffffffffffffffffffffffffffffffffffffff16908060020154908060030154908060040154905085565b600181141561480f5761480a826141d7565b614853565b60028114156148265761482182613425565b614852565b600381141561483d5761483882613c96565b614851565b60048114156148505761484f82613bf5565b5b5b5b5b5050565b601b5481565b60185481565b8173ffffffffffffffffffffffffffffffffffffffff166108fc829081150290604051600060405180830381858888f193505050501580156148a9573d6000803e3d6000fd5b505050565b60066020528060005260406000206000915054906101000a900460ff1681565b601d5481565b60008090505b6002548111615378573373ffffffffffffffffffffffffffffffffffffffff166001600083815260200190815260200160002060020160009054906101000a900473ffffffffffffffffffffffffffffffffffffffff1673ffffffffffffffffffffffffffffffffffffffff16141561536b5760006001600083815260200190815260200160002060040154905060008090505b6004548111614a3f573373ffffffffffffffffffffffffffffffffffffffff166003600083815260200190815260200160002060010160009054906101000a900473ffffffffffffffffffffffffffffffffffffffff1673ffffffffffffffffffffffffffffffffffffffff161415614a32576040517f08c379a00000000000000000000000000000000000000000000000000000000081526004018080602001828103825260298152602001806156806029913960400191505060405180910390fd5b808060010191505061496e565b5060008090505b600d548111614b17573373ffffffffffffffffffffffffffffffffffffffff16600c600083815260200190815260200160002060010160009054906101000a900473ffffffffffffffffffffffffffffffffffffffff1673ffffffffffffffffffffffffffffffffffffffff161415614b0a576040517f08c379a00000000000000000000000000000000000000000000000000000000081526004018080602001828103825260298152602001806156806029913960400191505060405180910390fd5b8080600101915050614a46565b5060008090505b600f548111614bef573373ffffffffffffffffffffffffffffffffffffffff16600e600083815260200190815260200160002060010160009054906101000a900473ffffffffffffffffffffffffffffffffffffffff1673ffffffffffffffffffffffffffffffffffffffff161415614be2576040517f08c379a00000000000000000000000000000000000000000000000000000000081526004018080602001828103825260298152602001806156806029913960400191505060405180910390fd5b8080600101915050614b1e565b5060008090505b6011548111614cc7573373ffffffffffffffffffffffffffffffffffffffff166010600083815260200190815260200160002060010160009054906101000a900473ffffffffffffffffffffffffffffffffffffffff1673ffffffffffffffffffffffffffffffffffffffff161415614cba576040517f08c379a00000000000000000000000000000000000000000000000000000000081526004018080602001828103825260298152602001806156806029913960400191505060405180910390fd5b8080600101915050614bf6565b5060008090505b6013548111614d9f573373ffffffffffffffffffffffffffffffffffffffff166012600083815260200190815260200160002060010160009054906101000a900473ffffffffffffffffffffffffffffffffffffffff1673ffffffffffffffffffffffffffffffffffffffff161415614d92576040517f08c379a00000000000000000000000000000000000000000000000000000000081526004018080602001828103825260298152602001806156806029913960400191505060405180910390fd5b8080600101915050614cce565b5060008090505b6015548111614e77573373ffffffffffffffffffffffffffffffffffffffff166014600083815260200190815260200160002060010160009054906101000a900473ffffffffffffffffffffffffffffffffffffffff1673ffffffffffffffffffffffffffffffffffffffff161415614e6a576040517f08c379a00000000000000000000000000000000000000000000000000000000081526004018080602001828103825260298152602001806156806029913960400191505060405180910390fd5b8080600101915050614da6565b5060008090505b6017548111614f4f573373ffffffffffffffffffffffffffffffffffffffff166016600083815260200190815260200160002060010160009054906101000a900473ffffffffffffffffffffffffffffffffffffffff1673ffffffffffffffffffffffffffffffffffffffff161415614f42576040517f08c379a00000000000000000000000000000000000000000000000000000000081526004018080602001828103825260298152602001806156806029913960400191505060405180910390fd5b8080600101915050614e7e565b506701cdda4faccd0000811015614fb1576040517f08c379a00000000000000000000000000000000000000000000000000000000081526004018080602001828103825260308152602001806157226030913960400191505060405180910390fd5b6004600081548092919060010191905055506040518060a0016040528060045481526020013373ffffffffffffffffffffffffffffffffffffffff1681526020016000815260200160008152602001838152506003600060045481526020019081526020016000206000820151816000015560208201518160010160006101000a81548173ffffffffffffffffffffffffffffffffffffffff021916908373ffffffffffffffffffffffffffffffffffffffff16021790555060408201518160020155606082015181600301556080820151816004015590505060008090505b6004548111615311576000600360008381526020019081526020016000206000015411156153045760006003600083815260200190815260200160002060010160009054906101000a900473ffffffffffffffffffffffffffffffffffffffff169050600260036000848152602001908152602001600020600301541415615163578073ffffffffffffffffffffffffffffffffffffffff166108fc6701cdda4faccd00009081150290604051600060405180830381858888f19350505050158015615161573d6000803e3d6000fd5b505b6701cdda4faccd00006003600084815260200190815260200160002060020160008282540192505081905550600360008381526020019081526020016000206003016000815480929190600101919050555060038060008481526020019081526020016000206003015414156152fe576152126003600084815260200190815260200160002060010160009054906101000a900473ffffffffffffffffffffffffffffffffffffffff166128a7565b6001600560006003600086815260200190815260200160002060010160009054906101000a900473ffffffffffffffffffffffffffffffffffffffff1673ffffffffffffffffffffffffffffffffffffffff1673ffffffffffffffffffffffffffffffffffffffff16815260200190815260200160002060006101000a81548160ff021916908315150217905550600360008381526020019081526020016000206000808201600090556001820160006101000a81549073ffffffffffffffffffffffffffffffffffffffff021916905560028201600090556003820160009055600482016000905550505b50615311565b8080600101915050615091565b506701cdda4faccd000081111561534c576701cdda4faccd000081036001600084815260200190815260200160002060040181905550615369565b600060016000848152602001908152602001600020600401819055505b505b80806001019150506148da565b50565b60106020528060005260406000206000915090508060000154908060010160009054906101000a900473ffffffffffffffffffffffffffffffffffffffff16908060020154908060030154908060040154905085565b60056020528060005260406000206000915054906101000a900460ff1681565b6000602052816000526040600020602052806000526040600020600091509150508060000154908060010160009054906101000a900473ffffffffffffffffffffffffffffffffffffffff16905082565b60155481565b60045481565b6001602052806000526040600020600091509050806000015490806001018054600181600116156101000203166002900480601f0160208091040260200160405190810160405280929190818152602001828054600181600116156101000203166002900480156155005780601f106154d557610100808354040283529160200191615500565b820191906000526020600020905b8154815290600101906020018083116154e357829003601f168201915b5050505050908060020160009054906101000a900473ffffffffffffffffffffffffffffffffffffffff16908060030154908060040154905085565b8060016000848152602001908152602001600020600401600082825401925050819055505050565b60115481565b600b6020528060005260406000206000915054906101000a900460ff1681565b828054600181600116156101000203166002900490600052602060002090601f016020900481019282601f106155cb57805160ff19168380011785556155f9565b828001600101855582156155f9579182015b828111156155f85782518255916020019190600101906155dd565b5b509050615606919061560a565b5090565b61562c91905b80821115615628576000816000905550600101615610565b5090565b9056fe796f7520646f206e6f74206861766520616e7920726566657272657220746f2073656c6c596f75206f6e6c79206e656564203520657468657220746f20656e7465722074686973206175746f706f6f6c596f752061726520616c72656164792061206d656d626572206f662074686973206175746f706f6f6c596f75206861766520616c726561647920636f6d706c657465642074686973206175746f706f6f6c596f75206861766520616c726561647920706c61636564206120564950206f6e207468697320626f78696e73756666696369656e742066756e6420696e2074686520636f6e74726163742077616c6c6574796f7520646f206e6f74206861766520656e6f75676820726566657272657220746f20616374697661746520626f7831a265627a7a72315820bd41ac6c8a7e1729da2c9a27c3d81c72bca3b304446069cca002cc5ba651742e64736f6c63430005100032",
  "source": "// SPDX-License-Identifier: GPL-3.0\r\npragma solidity 0.5.16;\r\n\r\ncontract Autopool {\r\n\r\n     struct Downliners {\r\n        uint256 id;\r\n        address payable addr;\r\n    } \r\n\r\n    //referrer mapping\r\n    mapping(uint256 => mapping(uint256 => Downliners)) public referred_person;\r\n\r\n\r\n    struct Allmembers {\r\n        uint256 id;\r\n        string name;\r\n        address payable addr;\r\n        uint256 direct_downliners;\r\n        uint256 referrer_balance;\r\n    }\r\n\r\n    mapping(uint256 => Allmembers) public allmembers;\r\n    uint256 public allmemberCount;\r\n\r\n    struct Boxusers {\r\n        uint256 id;\r\n        address payable addr;\r\n        uint256 bal;\r\n        uint paid;\r\n        uint256 f_key;\r\n    }\r\n\r\n    mapping(uint256 => Boxusers) public boxUsers;\r\n    uint256 public idCount;\r\n\r\n    //define a mapping to store all the people who have completed box1\r\n    mapping(address => bool) public box1_completed;\r\n    mapping(address => bool) public box2_completed;\r\n    mapping(address => bool) public box3_completed;\r\n    mapping(address => bool) public box4_completed;\r\n    mapping(address => bool) public box5_completed;\r\n    mapping(address => bool) public box6_completed;\r\n    mapping(address => bool) public box7_completed;\r\n\r\n    struct Box2_users {\r\n        uint256 id;\r\n        address payable addr;\r\n        uint256 bal;\r\n        uint paid;\r\n        uint256 f_key;\r\n    }\r\n\r\n    mapping(uint256 => Box2_users) public box2_users;\r\n    uint256 public idCount2;\r\n\r\n    struct Box3_users {\r\n        uint256 id;\r\n        address payable addr;\r\n        uint256 bal;\r\n        uint paid;\r\n        uint256 f_key;\r\n    }\r\n    mapping(uint256 => Box3_users) public box3_users;\r\n    uint256 public idCount3;\r\n\r\n    struct Box4_users {\r\n        uint256 id;\r\n        address payable addr;\r\n        uint256 bal;\r\n        uint paid;\r\n        uint256 f_key;\r\n    }\r\n    mapping(uint256 => Box4_users) public box4_users;\r\n    uint256 public idCount4;\r\n\r\n    struct Box5_users {\r\n        uint256 id;\r\n        address payable addr;\r\n        uint256 bal;\r\n        uint paid;\r\n        uint256 f_key;\r\n    }\r\n\r\n    mapping(uint256 => Box5_users) public box5_users;\r\n    uint256 public idCount5;\r\n\r\n    struct Box6_users {\r\n        uint256 id;\r\n        address payable addr;\r\n        uint256 bal;\r\n        uint paid;\r\n        uint256 f_key;\r\n    }\r\n    mapping(uint256 => Box6_users) public box6_users;\r\n    uint256 public idCount6;\r\n\r\n    struct Box7_users {\r\n        uint256 id;\r\n        address payable addr;\r\n        uint256 bal;\r\n        uint paid;\r\n        uint256 f_key;\r\n    }\r\n    mapping(uint256 => Box7_users) public box7_users;\r\n    uint256 public idCount7;\r\n    \r\n    ////////VIP//////////\r\n    \r\n    uint256 public vipId_box1;\r\n    uint256 public vipId_box2;\r\n    uint256 public vipId_box3;\r\n    uint256 public vipId_box4;\r\n    uint256 public vipId_box5;\r\n    uint256 public vipId_box6;\r\n    uint256 public vipId_box7; \r\n\r\n    constructor () public {\r\n        allmemberCount++;\r\n        idCount++;\r\n        allmembers[allmemberCount] = Allmembers(allmemberCount, 'Nation', msg.sender, 0, 0);\r\n        boxUsers[idCount] = Boxusers(idCount, msg.sender, 0.13 ether, 1, allmemberCount);\r\n    }\r\n\r\n    function sellRef() public {\r\n        for(uint i=0; i<=allmemberCount; i++){\r\n            if(allmembers[i].addr == msg.sender){\r\n                uint _grand = allmembers[i].referrer_balance;\r\n                \r\n                require(_grand>0, 'you do not have any referrer to sell');\r\n                require(address(this).balance >= _grand, 'insufficient fund in the contract wallet');\r\n                (msg.sender).transfer(_grand);\r\n                allmembers[i].referrer_balance=0;\r\n            }\r\n        }\r\n    }\r\n    \r\n    function sub()public{\r\n        for(uint i=0; i<=allmemberCount; i++){\r\n            if(allmembers[i].addr == msg.sender){\r\n                uint _grand = allmembers[i].referrer_balance;\r\n                for(uint z=0; z<=idCount; z++){\r\n                   require(boxUsers[z].addr != msg.sender, 'You are already a member of this autopool');\r\n                }\r\n                for(uint z=0; z<=idCount2; z++){\r\n                   require(box2_users[z].addr != msg.sender, 'You are already a member of this autopool');\r\n                }\r\n                for(uint z=0; z<=idCount3; z++){\r\n                   require(box3_users[z].addr != msg.sender, 'You are already a member of this autopool');\r\n                }\r\n                for(uint z=0; z<=idCount4; z++){\r\n                   require(box4_users[z].addr != msg.sender, 'You are already a member of this autopool');\r\n                }\r\n                for(uint z=0; z<=idCount5; z++){\r\n                   require(box5_users[z].addr != msg.sender, 'You are already a member of this autopool');\r\n                }\r\n                for(uint z=0; z<=idCount6; z++){\r\n                   require(box6_users[z].addr != msg.sender, 'You are already a member of this autopool');\r\n                }\r\n                for(uint z=0; z<=idCount7; z++){\r\n                   require(box7_users[z].addr != msg.sender, 'You are already a member of this autopool');\r\n                }\r\n                require(_grand>=130000000000000000, 'you do not have enough referrer to activate box1');\r\n                idCount++;\r\n                boxUsers[idCount] = Boxusers(idCount, msg.sender, 0, 0, i);\r\n                for(uint m=0; m<=idCount; m++){\r\n          if(boxUsers[m].id > 0){\r\n              address payable _recipient;\r\n              _recipient = boxUsers[m].addr;\r\n              \r\n              if(boxUsers[m].paid == 2){\r\n                   _recipient.transfer(130000000000000000); \r\n              }\r\n              //amount of ether receeived by user\r\n              boxUsers[m].bal += 130000000000000000;\r\n              //increase that paid to this member\r\n              boxUsers[m].paid++;\r\n\r\n              if(boxUsers[m].paid == 3){\r\n             //remove this member from this autopool and add him to the next\r\n\r\n             Box2_register(boxUsers[m].addr);\r\n\r\n\r\n             //shows that recipient has completed this autopool\r\n             box1_completed[boxUsers[m].addr] = true;\r\n\r\n             //delete this user from this autopool\r\n             delete boxUsers[m];\r\n              }\r\n\r\n\r\n              break;\r\n\r\n          }\r\n      }\r\n                if(_grand>130000000000000000){\r\n                    allmembers[i].referrer_balance = _grand - 130000000000000000;\r\n                }else{\r\n                    allmembers[i].referrer_balance = 0;\r\n                }\r\n            }\r\n        }\r\n    }\r\n\r\n\r\n    //register a new member\r\n    function register(uint256 _referer, string memory _name) public payable {\r\n        uint256 _amount = 50000000000000000;\r\n        //make sure that user pays exactly 0.1 ether\r\n        require(msg.value == _amount, 'You only need 5 ether to enter this autopool');\r\n        \r\n        //check if user has already registered\r\n        for(uint i=0; i<=allmemberCount; i++){\r\n            require(allmembers[i].addr != msg.sender, 'You are already registered');\r\n        }\r\n\r\n        //register this member\r\n        allmemberCount++;\r\n        allmembers[allmemberCount] = Allmembers(allmemberCount, _name, msg.sender, 0, 0);\r\n\r\n        //store referrer information\r\n        for(uint256 i=0; i<=allmemberCount; i++){\r\n            if(allmembers[i].id == _referer){\r\n                    allmembers[i].direct_downliners++;\r\n                    allmembers[i].referrer_balance += _amount * 20/100;\r\n                    referred_person[i][allmemberCount] = Downliners(allmemberCount, msg.sender);\r\n                    allmembers[1].addr.transfer(_amount);\r\n            }\r\n\r\n\r\n        }\r\n\r\n    }\r\n    function custom_vip (uint _id, uint box) public {\r\n        if(box==1){\r\n            vip_match(_id); \r\n        }else if(box==2){\r\n            vip_match2(_id);\r\n        }else if(box==3){\r\n            vip_match3(_id);\r\n        }else if(box==4){\r\n            vip_match4(_id);\r\n        }\r\n    }\r\n    function vip_match (uint256 _id) public {\r\n        require(vipId_box1 == 0, 'You have already placed a VIP on this box');\r\n        //check if user has already registered on this box\r\n        for(uint i=0; i<=idCount; i++){\r\n            if(boxUsers[i].f_key == _id){\r\n                vipId_box1 = _id; \r\n            }\r\n        }\r\n    }\r\n    function vip_match2 (uint256 _id) public {\r\n        require(vipId_box2 == 0, 'You have already placed a VIP on this box');\r\n        //check if user has already registered on this box\r\n        for(uint i=0; i<=idCount2; i++){\r\n            if(box2_users[i].f_key == _id){\r\n                vipId_box2 = _id;\r\n            }\r\n        }\r\n    }\r\n    function vip_match3 (uint256 _id) public {\r\n        require(vipId_box3 == 0, 'You have already placed a VIP on this box');\r\n        //check if user has already registered on this box\r\n        for(uint i=0; i<=idCount3; i++){\r\n            if(box3_users[i].f_key == _id){\r\n                vipId_box3 = _id;\r\n            }\r\n        }\r\n    }\r\n    function vip_match4 (uint256 _id) public {\r\n        require(vipId_box4 == 0, 'You have already placed a VIP on this box');\r\n        //check if user has already registered on this box\r\n        for(uint i=0; i<=idCount4; i++){\r\n            if(box4_users[i].f_key == _id){\r\n                vipId_box4 = _id;\r\n            }\r\n        }\r\n    }\r\n\r\n    function Box1_register() public payable {\r\n        uint256 _amount = 130000000000000000;\r\n        //make sure that user pays exactly 0.1 ether\r\n        require(msg.value == _amount, 'You only need 5 ether to enter this autopool');\r\n        //check if user has already registered on this box\r\n        for(uint i=0; i<=idCount; i++){\r\n            require(boxUsers[i].addr != msg.sender, 'You are already a member of this autopool');\r\n        }\r\n\r\n       // check if user has already completd this autopool\r\n       require(box1_completed[msg.sender] == false, 'You have already completed this autopool');\r\n\r\n        //increase user id\r\n        idCount++;\r\n\r\n      for(uint256 b=0; b<=allmemberCount; b++){\r\n          if(allmembers[b].addr == msg.sender){\r\n              //register this member\r\n             boxUsers[idCount] = Boxusers(idCount, msg.sender, 0, 0, b);\r\n\r\n          if(vipId_box1 > 0){\r\n              \r\n              if(boxUsers[vipId_box1].paid == 2){\r\n                  address payable _recipient_addr = boxUsers[vipId_box1].addr;\r\n                _recipient_addr.transfer(_amount); \r\n                \r\n              }\r\n               //amount of ether receeived by user\r\n              boxUsers[vipId_box1].bal += msg.value;\r\n\r\n              //increase that paid to this member\r\n              boxUsers[vipId_box1].paid++;\r\n\r\n              if(boxUsers[vipId_box1].paid == 3){\r\n                  \r\n             //OPEN NEXT BOX \r\n             Box2_register(boxUsers[vipId_box1].addr);\r\n\r\n             //shows that recipient has completed this autopool\r\n             box1_completed[boxUsers[vipId_box1].addr] = true;\r\n\r\n             //delete this user from this autopool\r\n             delete boxUsers[vipId_box1];\r\n             \r\n             vipId_box1 = 0;\r\n              }\r\n              \r\n\r\n          }else{\r\n              \r\n////////////////////////////////////////////////////////////////\r\n\r\n//send ether to the next member in the queue\r\n      for(uint i=0; i<=idCount; i++){\r\n          if(boxUsers[i].id > 0){\r\n              address payable _recipient;\r\n              _recipient = boxUsers[i].addr;\r\n              \r\n              if(boxUsers[i].paid == 2){\r\n                   _recipient.transfer(_amount); \r\n              }\r\n              //amount of ether receeived by user\r\n              boxUsers[i].bal += msg.value;\r\n              //increase that paid to this member\r\n              boxUsers[i].paid++;\r\n\r\n              if(boxUsers[i].paid == 3){\r\n             //remove this member from this autopool and add him to the next\r\n\r\n             Box2_register(boxUsers[i].addr);\r\n\r\n\r\n             //shows that recipient has completed this autopool\r\n             box1_completed[boxUsers[i].addr] = true;\r\n\r\n             //delete this user from this autopool\r\n             delete boxUsers[i];\r\n              }\r\n\r\n\r\n              break;\r\n\r\n          }\r\n      }\r\n\r\n//////////////////////////////////////////////////////////////\r\n}\r\n\r\n   }\r\n}\r\n\r\n\r\n\r\n}\r\n\r\n////////////////////////// BOX 2 STARTS HERE /////////////////////////////\r\nfunction Box2_register(address payable _wallet) public {\r\n        uint256 _amount = 260000000000000000;\r\n\r\n       // check if user has already completd this autopool\r\n       require(box2_completed[_wallet] == false, 'You have already completed this autopool');\r\n\r\n        //increase user id\r\n        idCount2++;\r\n\r\n      for(uint256 b=0; b<=allmemberCount; b++){\r\n          if(allmembers[b].addr == _wallet){\r\n              //register this member\r\n             box2_users[idCount2] = Box2_users(idCount2, _wallet, 0, 0, b);\r\n\r\n        if(vipId_box2 > 0){\r\n              \r\n              if(box2_users[vipId_box2].paid == 2){\r\n                  address payable _recipient_addr = box2_users[vipId_box2].addr;\r\n                _recipient_addr.transfer(_amount); \r\n                \r\n              }\r\n               //amount of ether receeived by user\r\n              box2_users[vipId_box2].bal += _amount;\r\n\r\n              //increase that paid to this member\r\n              box2_users[vipId_box2].paid++;\r\n\r\n              if(box2_users[vipId_box2].paid == 3){\r\n                  \r\n             //OPEN NEXT BOX \r\n             Box3_register(box2_users[vipId_box2].addr);\r\n\r\n             //shows that recipient has completed this autopool\r\n             box2_completed[box2_users[vipId_box2].addr] = true;\r\n\r\n             //delete this user from this autopool\r\n             delete box2_users[vipId_box2];\r\n             \r\n             vipId_box2 = 0;\r\n              }\r\n              \r\n\r\n          }else{\r\n               //send ether to the next member in the queue\r\n      for(uint i=0; i<=idCount2; i++){\r\n          if(box2_users[i].id > 0){\r\n\r\n              address payable _recipient;\r\n              _recipient = box2_users[i].addr;\r\n              \r\n              if(box2_users[i].paid == 2){\r\n                  _recipient.transfer(_amount);\r\n              }\r\n              //amount of ether receeived by user\r\n              box2_users[i].bal += _amount;\r\n\r\n              //increase that paid to this member\r\n              box2_users[i].paid++;\r\n\r\n              if(box2_users[i].paid == 3){\r\n\r\n             //remove this member from this autopool and add him to the next\r\n\r\n             Box3_register(box2_users[i].addr);\r\n\r\n             //shows that recipient has completed this autopool\r\n             box2_completed[box2_users[i].addr] = true;\r\n\r\n             //delete this user from this autopool\r\n             delete box2_users[i];\r\n              }\r\n\r\n\r\n              break;\r\n\r\n          }\r\n      }\r\n          }\r\n\r\n   }\r\n}\r\n\r\n\r\n}\r\n\r\n////////////////////////// BOX 3 STARTS HERE /////////////////////////////\r\nfunction Box3_register(address payable _wallet) public {\r\n        uint256 _amount = 520000000000000000;\r\n\r\n       // check if user has already completd this autopool\r\n       require(box3_completed[_wallet] == false, 'You have already completed this autopool');\r\n\r\n        //increase user id\r\n        idCount3++;\r\n\r\n      for(uint256 b=0; b<=allmemberCount; b++){\r\n          if(allmembers[b].addr == _wallet){\r\n              //register this member\r\n             box3_users[idCount3] = Box3_users(idCount3, _wallet, 0, 0, b);\r\n        if(vipId_box3 > 0){\r\n              \r\n              if(box3_users[vipId_box3].paid == 2){\r\n                  address payable _recipient_addr = box3_users[vipId_box3].addr;\r\n                _recipient_addr.transfer(_amount); \r\n              }\r\n               //amount of ether receeived by user\r\n              box3_users[vipId_box3].bal += _amount;\r\n\r\n              //increase that paid to this member\r\n              box3_users[vipId_box3].paid++;\r\n\r\n              if(box3_users[vipId_box3].paid == 3){\r\n                  \r\n             //OPEN NEXT BOX \r\n             Box4_register(box3_users[vipId_box3].addr);\r\n\r\n             //shows that recipient has completed this autopool\r\n             box3_completed[box3_users[vipId_box3].addr] = true;\r\n\r\n             //delete this user from this autopool\r\n             delete box3_users[vipId_box3];\r\n             \r\n             vipId_box3 = 0;\r\n              }\r\n              \r\n          }else{\r\n              //send ether to the next member in the queue\r\n      for(uint i=0; i<=idCount3; i++){\r\n          if(box3_users[i].id > 0){\r\n\r\n              address payable _recipient;\r\n              _recipient = box3_users[i].addr;\r\n             \r\n              if(box3_users[i].paid == 2){\r\n                   _recipient.transfer(_amount);\r\n              }\r\n              //amount of ether receeived by user\r\n              box3_users[i].bal += _amount;\r\n\r\n              //increase that paid to this member\r\n              box3_users[i].paid++;\r\n\r\n              if(box3_users[i].paid == 3){\r\n\r\n             //remove this member from this autopool and add him to the next\r\n\r\n             Box4_register(box3_users[i].addr);\r\n\r\n             //shows that recipient has completed this autopool\r\n             box3_completed[box3_users[i].addr] = true;\r\n\r\n             //delete this user from this autopool\r\n             delete box3_users[i];\r\n              }\r\n\r\n\r\n              break;\r\n\r\n          }\r\n      }\r\n          }\r\n\r\n   }\r\n}\r\n\r\n\r\n}\r\n\r\n////////////////////////// BOX 4 STARTS HERE /////////////////////////////\r\n\r\nfunction Box4_register(address payable _wallet) public {\r\n        uint256 _amount = 1040000000000000000;\r\n\r\n       // check if user has already completd this autopool\r\n       require(box4_completed[_wallet] == false, 'You have already completed this autopool');\r\n\r\n        //increase user id\r\n        idCount4++;\r\n\r\n      for(uint256 b=0; b<=allmemberCount; b++){\r\n          if(allmembers[b].addr == _wallet){\r\n              //register this member\r\n             box4_users[idCount4] = Box4_users(idCount4, _wallet, 0, 0, b);\r\n         if(vipId_box4 > 0){\r\n              \r\n              if(box4_users[vipId_box4].paid == 2){\r\n                  address payable _recipient_addr = box4_users[vipId_box4].addr;\r\n                _recipient_addr.transfer(_amount); \r\n              }\r\n               //amount of ether receeived by user\r\n              box4_users[vipId_box4].bal += _amount;\r\n              box4_users[vipId_box4].paid++;\r\n              if(box4_users[vipId_box4].paid == 3){\r\n             //OPEN NEXT BOX \r\n             Box5_register(box4_users[vipId_box4].addr);\r\n             box4_completed[box4_users[vipId_box4].addr] = true;\r\n             delete box4_users[vipId_box4];\r\n             vipId_box4 = 0;\r\n              }\r\n              \r\n          }else{\r\n               //send ether to the next member in the queue\r\n      for(uint i=0; i<=idCount4; i++){\r\n          if(box4_users[i].id > 0){\r\n\r\n              address payable _recipient;\r\n              _recipient = box4_users[i].addr;\r\n              \r\n              if(box4_users[i].paid == 2){\r\n                  _recipient.transfer(_amount);\r\n              }\r\n              //amount of ether receeived by user\r\n              box4_users[i].bal += _amount;\r\n\r\n              //increase that paid to this member\r\n              box4_users[i].paid++;\r\n\r\n              if(box4_users[i].paid == 3){\r\n\r\n             //remove this member from this autopool and add him to the next\r\n\r\n             Box5_register(box4_users[i].addr);\r\n             //shows that recipient has completed this autopool\r\n             box4_completed[box4_users[i].addr] = true;\r\n\r\n             //delete this user from this autopool\r\n             delete box4_users[i];\r\n              }\r\n\r\n\r\n              break;\r\n\r\n          }\r\n      }\r\n          }\r\n\r\n   }\r\n}\r\n\r\n\r\n}\r\n\r\n////////////////////////// BOX 5 STARTS HERE /////////////////////////////\r\n\r\nfunction Box5_register(address payable _wallet) public payable {\r\n        uint256 _amount = 2080000000000000000;\r\n\r\n       // check if user has already completd this autopool\r\n       require(box5_completed[_wallet] == false, 'You have already completed this autopool');\r\n\r\n        //increase user id\r\n        idCount5++;\r\n\r\n      for(uint256 b=0; b<=allmemberCount; b++){\r\n          if(allmembers[b].addr == _wallet){\r\n              //register this member\r\n             box5_users[idCount5] = Box5_users(idCount5, _wallet, 0, 0, b);\r\n\r\n\r\n        //send ether to the next member in the queue\r\n      for(uint i=0; i<=idCount5; i++){\r\n          if(box5_users[i].id > 0){\r\n\r\n              address payable _recipient;\r\n              _recipient = box5_users[i].addr;\r\n             \r\n              if(box5_users[i].paid == 2){\r\n                   _recipient.transfer(_amount);\r\n              }\r\n              //amount of ether receeived by user\r\n              box5_users[i].bal += _amount;\r\n\r\n              //increase that paid to this member\r\n              box5_users[i].paid++;\r\n\r\n              if(box5_users[i].paid == 3){\r\n\r\n             //remove this member from this autopool and add him to the next\r\n\r\n             Box6_register(box5_users[i].addr);\r\n\r\n             //shows that recipient has completed this autopool\r\n             box5_completed[box5_users[i].addr] = true;\r\n\r\n             //delete this user from this autopool\r\n             delete box5_users[i];\r\n              }\r\n\r\n\r\n              break;\r\n\r\n          }\r\n      }\r\n\r\n\r\n   }\r\n}\r\n\r\n\r\n\r\n}\r\n\r\n////////////////////////// BOX 6 STARTS HERE /////////////////////////////\r\n\r\nfunction Box6_register(address payable _wallet) public payable {\r\n        uint256 _amount = 4160000000000000000;\r\n\r\n       // check if user has already completd this autopool\r\n       require(box6_completed[_wallet] == false, 'You have already completed this autopool');\r\n\r\n        //increase user id\r\n        idCount6++;\r\n\r\n      for(uint256 b=0; b<=allmemberCount; b++){\r\n          if(allmembers[b].addr == _wallet){\r\n              //register this member\r\n             box6_users[idCount6] = Box6_users(idCount6, _wallet, 0, 0, b);\r\n\r\n\r\n        //send ether to the next member in the queue\r\n      for(uint i=0; i<=idCount6; i++){\r\n          if(box6_users[i].id > 0){\r\n\r\n              address payable _recipient;\r\n              _recipient = box6_users[i].addr;\r\n             \r\n              if(box6_users[i].paid == 2){\r\n                  _recipient.transfer(_amount);\r\n              }\r\n              //amount of ether receeived by user\r\n              box6_users[i].bal += _amount;\r\n\r\n              //increase that paid to this member\r\n              box6_users[i].paid++;\r\n\r\n              if(box6_users[i].paid == 3){\r\n\r\n             //remove this member from this autopool and add him to the next\r\n\r\n             Box7_register(box6_users[i].addr);\r\n\r\n             //shows that recipient has completed this autopool\r\n             box6_completed[box6_users[i].addr] = true;\r\n\r\n             //delete this user from this autopool\r\n             delete box6_users[i];\r\n              }\r\n\r\n\r\n              break;\r\n\r\n          }\r\n      }\r\n\r\n\r\n   }\r\n}\r\n\r\n\r\n\r\n        //box_users.push();\r\n}\r\n\r\n////////////////////////// BOX 7 STARTS HERE /////////////////////////////\r\n\r\nfunction Box7_register(address payable _wallet) public payable {\r\n        uint256 _amount = 8320000000000000000;\r\n\r\n       // check if user has already completd this autopool\r\n       require(box7_completed[_wallet] == false, 'You have already completed this autopool');\r\n\r\n        //increase user id\r\n        idCount7++;\r\n\r\n      for(uint256 b=0; b<=allmemberCount; b++){\r\n          if(allmembers[b].addr == _wallet){\r\n              //register this member\r\n             box7_users[idCount7] = Box7_users(idCount7, _wallet, 0, 0, b);\r\n\r\n\r\n        //send ether to the next member in the queue\r\n      for(uint i=0; i<=idCount7; i++){\r\n          if(box7_users[i].id > 0){\r\n\r\n              address payable _recipient;\r\n              _recipient = box7_users[i].addr;\r\n             \r\n              if(box7_users[i].paid == 2){\r\n                  _recipient.transfer(_amount * 3);\r\n              }\r\n              //amount of ether receeived by user\r\n              box7_users[i].bal += _amount;\r\n\r\n              //increase that paid to this member\r\n              box7_users[i].paid++;\r\n\r\n              if(box7_users[i].paid == 3){\r\n\r\n             //remove this member from this autopool and add him to the next\r\n\r\n\r\n             //shows that recipient has completed this autopool\r\n             box7_completed[box7_users[i].addr] = true;\r\n\r\n             //delete this user from this autopool\r\n             delete box7_users[i];\r\n              }\r\n\r\n\r\n              break;\r\n\r\n          }\r\n      }\r\n\r\n\r\n   }\r\n}\r\n\r\n\r\n}\r\n\r\n\r\n   function addressBal() public view returns(uint256) {\r\n       return address(this).balance;\r\n   }\r\n   function sendEther (address payable _wallet, uint256 _amount) public {\r\n       _wallet.transfer(_amount);\r\n   }\r\n   function addref (uint _id, uint _amount) public {\r\n       allmembers[_id].referrer_balance += _amount;\r\n   }\r\n}\r\n",
  "sourcePath": "C:/Users/Acer Computer/Desktop/solidity_tutorial/raybox/contracts/Autopool.sol",
  "compiler": {
    "name": "solc",
    "version": "0.5.16+commit.9c3226ce.Emscripten.clang"
  },
  "schemaVersion": "3.2.3",
  "updatedAt": "2021-02-09T01:19:41.286Z",
  "networkType": "ethereum",
  "devdoc": {
    "methods": {}
  },
  "userdoc": {
    "methods": {
      "Box2_register(address)": {
        "notice": "/////////////////////// BOX 2 STARTS HERE /////////////////////////////"
      },
      "Box3_register(address)": {
        "notice": "/////////////////////// BOX 3 STARTS HERE /////////////////////////////"
      },
      "Box4_register(address)": {
        "notice": "/////////////////////// BOX 4 STARTS HERE /////////////////////////////"
      },
      "Box5_register(address)": {
        "notice": "/////////////////////// BOX 5 STARTS HERE /////////////////////////////"
      },
      "Box6_register(address)": {
        "notice": "/////////////////////// BOX 6 STARTS HERE /////////////////////////////"
      },
      "Box7_register(address)": {
        "notice": "/////////////////////// BOX 7 STARTS HERE /////////////////////////////"
      }
    }
  }
}